{
  "contractName": "CampaignFundFactory",
  "abi": [
    {
      "inputs": [
        {
          "internalType": "uint256",
          "name": "",
          "type": "uint256"
        }
      ],
      "name": "deployedCampaignFunds",
      "outputs": [
        {
          "internalType": "address",
          "name": "",
          "type": "address"
        }
      ],
      "stateMutability": "view",
      "type": "function"
    },
    {
      "inputs": [
        {
          "internalType": "uint256",
          "name": "minContributionInEther",
          "type": "uint256"
        }
      ],
      "name": "createCampaign",
      "outputs": [],
      "stateMutability": "nonpayable",
      "type": "function"
    },
    {
      "inputs": [],
      "name": "getDeployedCampaigns",
      "outputs": [
        {
          "internalType": "address[]",
          "name": "",
          "type": "address[]"
        }
      ],
      "stateMutability": "view",
      "type": "function"
    }
  ],
  "bytecode": "0x608060405234801561001057600080fd5b5061209b806100206000396000f3fe608060405234801561001057600080fd5b50600436106100415760003560e01c80634a8efeee146100465780634acb9d4f14610076578063a3303a7514610094575b600080fd5b610060600480360381019061005b9190610259565b6100b0565b60405161006d9190610325565b60405180910390f35b61007e6100ef565b60405161008b9190610340565b60405180910390f35b6100ae60048036038101906100a99190610259565b61017d565b005b600081815481106100c057600080fd5b906000526020600020016000915054906101000a900473ffffffffffffffffffffffffffffffffffffffff1681565b6060600080548060200260200160405190810160405280929190818152602001828054801561017357602002820191906000526020600020905b8160009054906101000a900473ffffffffffffffffffffffffffffffffffffffff1673ffffffffffffffffffffffffffffffffffffffff1681526020019060010190808311610129575b5050505050905090565b6000670de0b6b3a76400008261019391906103c4565b9050600081336040516101a590610237565b6101b0929190610362565b604051809103906000f0801580156101cc573d6000803e3d6000fd5b5090506000819080600181540180825580915050600190039060005260206000200160009091909190916101000a81548173ffffffffffffffffffffffffffffffffffffffff021916908373ffffffffffffffffffffffffffffffffffffffff160217905550505050565b611bc5806104a183390190565b60008135905061025381610489565b92915050565b60006020828403121561026b57600080fd5b600061027984828501610244565b91505092915050565b600061028e838361029a565b60208301905092915050565b6102a38161041e565b82525050565b6102b28161041e565b82525050565b60006102c38261039b565b6102cd81856103b3565b93506102d88361038b565b8060005b838110156103095781516102f08882610282565b97506102fb836103a6565b9250506001810190506102dc565b5085935050505092915050565b61031f81610450565b82525050565b600060208201905061033a60008301846102a9565b92915050565b6000602082019050818103600083015261035a81846102b8565b905092915050565b60006040820190506103776000830185610316565b61038460208301846102a9565b9392505050565b6000819050602082019050919050565b600081519050919050565b6000602082019050919050565b600082825260208201905092915050565b60006103cf82610450565b91506103da83610450565b9250817fffffffffffffffffffffffffffffffffffffffffffffffffffffffffffffffff04831182151516156104135761041261045a565b5b828202905092915050565b600061042982610430565b9050919050565b600073ffffffffffffffffffffffffffffffffffffffff82169050919050565b6000819050919050565b7f4e487b7100000000000000000000000000000000000000000000000000000000600052601160045260246000fd5b61049281610450565b811461049d57600080fd5b5056fe60806040523480156200001157600080fd5b5060405162001bc538038062001bc58339818101604052810190620000379190620000b4565b806000806101000a81548173ffffffffffffffffffffffffffffffffffffffff021916908373ffffffffffffffffffffffffffffffffffffffff16021790555081600181905550505062000167565b600081519050620000978162000133565b92915050565b600081519050620000ae816200014d565b92915050565b60008060408385031215620000c857600080fd5b6000620000d8858286016200009d565b9250506020620000eb8582860162000086565b9150509250929050565b6000620001028262000109565b9050919050565b600073ffffffffffffffffffffffffffffffffffffffff82169050919050565b6000819050919050565b6200013e81620000f5565b81146200014a57600080fd5b50565b620001588162000129565b81146200016457600080fd5b50565b611a4e80620001776000396000f3fe6080604052600436106100dd5760003560e01c80638a9cfd551161007f578063ab2850da11610059578063ab2850da146102ab578063c58343ef146102e8578063d7bb99ba14610329578063d7d1bbdb14610333576100dd565b80638a9cfd551461022c5780639fb42b1f14610255578063aaffadf314610280576100dd565b80634051ddac116100bb5780634051ddac14610166578063481c6a751461019557806381d12c58146101c057806382fde09314610201576100dd565b806303441006146100e25780630a144391146100fe5780633410452a1461013b575b600080fd5b6100fc60048036038101906100f79190611052565b61035c565b005b34801561010a57600080fd5b5061012560048036038101906101209190610fc2565b610572565b6040516101329190611494565b60405180910390f35b34801561014757600080fd5b50610150610592565b60405161015d91906116c1565b60405180910390f35b34801561017257600080fd5b5061017b61059c565b60405161018c959493929190611705565b60405180910390f35b3480156101a157600080fd5b506101aa6105e0565b6040516101b79190611450565b60405180910390f35b3480156101cc57600080fd5b506101e760048036038101906101e29190611052565b610604565b6040516101f89594939291906114ed565b60405180910390f35b34801561020d57600080fd5b506102166106ff565b60405161022391906116c1565b60405180910390f35b34801561023857600080fd5b50610253600480360381019061024e9190610feb565b610705565b005b34801561026157600080fd5b5061026a61094f565b60405161027791906116c1565b60405180910390f35b34801561028c57600080fd5b50610295610955565b6040516102a291906116c1565b60405180910390f35b3480156102b757600080fd5b506102d260048036038101906102cd919061107b565b61095b565b6040516102df9190611494565b60405180910390f35b3480156102f457600080fd5b5061030f600480360381019061030a9190611052565b61098a565b604051610320959493929190611547565b60405180910390f35b610331610ac3565b005b34801561033f57600080fd5b5061035a60048036038101906103559190611052565b610c05565b005b60008054906101000a900473ffffffffffffffffffffffffffffffffffffffff1673ffffffffffffffffffffffffffffffffffffffff163373ffffffffffffffffffffffffffffffffffffffff16146103ea576040517f08c379a00000000000000000000000000000000000000000000000000000000081526004016103e1906116a1565b60405180910390fd5b600060038281548110610426577f4e487b7100000000000000000000000000000000000000000000000000000000600052603260045260246000fd5b90600052602060002090600402019050600260055461044591906117d5565b81600301541161048a576040517f08c379a000000000000000000000000000000000000000000000000000000000815260040161048190611661565b60405180910390fd5b8060020160149054906101000a900460ff16156104dc576040517f08c379a00000000000000000000000000000000000000000000000000000000081526004016104d390611681565b60405180910390fd5b60018160020160146101000a81548160ff02191690831515021790555060008160020160009054906101000a900473ffffffffffffffffffffffffffffffffffffffff1690508073ffffffffffffffffffffffffffffffffffffffff166108fc83600101549081150290604051600060405180830381858888f1935050505015801561056c573d6000803e3d6000fd5b50505050565b60026020528060005260406000206000915054906101000a900460ff1681565b6000600454905090565b60008060008060006001544760045460055460008054906101000a900473ffffffffffffffffffffffffffffffffffffffff16945094509450945094509091929394565b60008054906101000a900473ffffffffffffffffffffffffffffffffffffffff1681565b6003818154811061061457600080fd5b9060005260206000209060040201600091509050806000018054610637906118a2565b80601f0160208091040260200160405190810160405280929190818152602001828054610663906118a2565b80156106b05780601f10610685576101008083540402835291602001916106b0565b820191906000526020600020905b81548152906001019060200180831161069357829003601f168201915b5050505050908060010154908060020160009054906101000a900473ffffffffffffffffffffffffffffffffffffffff16908060020160149054906101000a900460ff16908060030154905085565b60055481565b60008054906101000a900473ffffffffffffffffffffffffffffffffffffffff1673ffffffffffffffffffffffffffffffffffffffff163373ffffffffffffffffffffffffffffffffffffffff1614610793576040517f08c379a000000000000000000000000000000000000000000000000000000000815260040161078a906116a1565b60405180910390fd5b600073ffffffffffffffffffffffffffffffffffffffff168173ffffffffffffffffffffffffffffffffffffffff161415610803576040517f08c379a00000000000000000000000000000000000000000000000000000000081526004016107fa90611601565b60405180910390fd5b47821115610846576040517f08c379a000000000000000000000000000000000000000000000000000000000815260040161083d90611621565b60405180910390fd5b60006003600181600181540180825580915050039060005260206000209060040201905083816000019080519060200190610882929190610e8d565b50828160010181905550818160020160006101000a81548173ffffffffffffffffffffffffffffffffffffffff021916908373ffffffffffffffffffffffffffffffffffffffff16021790555060008160020160146101000a81548160ff0219169083151502179055506000816003018190555060046000815480929190610909906118d4565b91905055507f7c8193f35c0be0f0de85a76806a85eb113857a95308e004a23313fa4dda3293e848484604051610941939291906114af565b60405180910390a150505050565b60045481565b60015481565b60066020528160005260406000206020528060005260406000206000915091509054906101000a900460ff1681565b60606000806000806000600387815481106109ce577f4e487b7100000000000000000000000000000000000000000000000000000000600052603260045260246000fd5b906000526020600020906004020190508060000181600101548260020160009054906101000a900473ffffffffffffffffffffffffffffffffffffffff168360020160149054906101000a900460ff168460030154848054610a2f906118a2565b80601f0160208091040260200160405190810160405280929190818152602001828054610a5b906118a2565b8015610aa85780601f10610a7d57610100808354040283529160200191610aa8565b820191906000526020600020905b815481529060010190602001808311610a8b57829003601f168201915b50505050509450955095509550955095505091939590929450565b600154341015610b08576040517f08c379a0000000000000000000000000000000000000000000000000000000008152600401610aff90611641565b60405180910390fd5b600260003373ffffffffffffffffffffffffffffffffffffffff1673ffffffffffffffffffffffffffffffffffffffff16815260200190815260200160002060009054906101000a900460ff16610bca576001600260003373ffffffffffffffffffffffffffffffffffffffff1673ffffffffffffffffffffffffffffffffffffffff16815260200190815260200160002060006101000a81548160ff02191690831515021790555060056000815480929190610bc4906118d4565b91905055505b7f6770260ea820d2f539364e7617e021543aaf6d192f2fd2a47c20db6bd99a4eb93334604051610bfb92919061146b565b60405180910390a1565b600060038281548110610c41577f4e487b7100000000000000000000000000000000000000000000000000000000600052603260045260246000fd5b90600052602060002090600402019050600260003373ffffffffffffffffffffffffffffffffffffffff1673ffffffffffffffffffffffffffffffffffffffff16815260200190815260200160002060009054906101000a900460ff16610cdd576040517f08c379a0000000000000000000000000000000000000000000000000000000008152600401610cd4906115a1565b60405180910390fd5b6006600083815260200190815260200160002060003373ffffffffffffffffffffffffffffffffffffffff1673ffffffffffffffffffffffffffffffffffffffff16815260200190815260200160002060009054906101000a900460ff1615610d7b576040517f08c379a0000000000000000000000000000000000000000000000000000000008152600401610d72906115e1565b60405180910390fd5b8060020160149054906101000a900460ff1615610dcd576040517f08c379a0000000000000000000000000000000000000000000000000000000008152600401610dc4906115c1565b60405180910390fd5b60016006600084815260200190815260200160002060003373ffffffffffffffffffffffffffffffffffffffff1673ffffffffffffffffffffffffffffffffffffffff16815260200190815260200160002060006101000a81548160ff021916908315150217905550806003016000815480929190610e4b906118d4565b91905055507ff3dc904660a0ea05aba8dfa1e21fbc4fb2914be2a3029da7b0fdd3e5eee20ddb8233604051610e819291906116dc565b60405180910390a15050565b828054610e99906118a2565b90600052602060002090601f016020900481019282610ebb5760008555610f02565b82601f10610ed457805160ff1916838001178555610f02565b82800160010185558215610f02579182015b82811115610f01578251825591602001919060010190610ee6565b5b509050610f0f9190610f13565b5090565b5b80821115610f2c576000816000905550600101610f14565b5090565b6000610f43610f3e84611789565b611758565b905082815260208101848484011115610f5b57600080fd5b610f66848285611860565b509392505050565b600081359050610f7d816119ea565b92915050565b600082601f830112610f9457600080fd5b8135610fa4848260208601610f30565b91505092915050565b600081359050610fbc81611a01565b92915050565b600060208284031215610fd457600080fd5b6000610fe284828501610f6e565b91505092915050565b60008060006060848603121561100057600080fd5b600084013567ffffffffffffffff81111561101a57600080fd5b61102686828701610f83565b935050602061103786828701610fad565b925050604061104886828701610f6e565b9150509250925092565b60006020828403121561106457600080fd5b600061107284828501610fad565b91505092915050565b6000806040838503121561108e57600080fd5b600061109c85828601610fad565b92505060206110ad85828601610f6e565b9150509250929050565b6110c081611818565b82525050565b6110cf81611806565b82525050565b6110de8161182a565b82525050565b60006110ef826117b9565b6110f981856117c4565b935061110981856020860161186f565b611112816119d9565b840191505092915050565b600061112a6024836117c4565b91507f4f6e6c7920617070726f766572732063616e20617070726f766520726571756560008301527f7374732e000000000000000000000000000000000000000000000000000000006020830152604082019050919050565b60006111906021836117c4565b91507f43616e277420617070726f7665206120636f6d706c657465207265717565737460008301527f2e000000000000000000000000000000000000000000000000000000000000006020830152604082019050919050565b60006111f66023836117c4565b91507f5265717565737420616c726561647920617070726f7665642062792063616c6c60008301527f65722e00000000000000000000000000000000000000000000000000000000006020830152604082019050919050565b600061125c6019836117c4565b91507f496e76616c696420726563697069656e742061646472657373000000000000006000830152602082019050919050565b600061129c6026836117c4565b91507f526571756573742076616c7565206578636565647320636f6e7472616374206260008301527f616c616e636500000000000000000000000000000000000000000000000000006020830152604082019050919050565b60006113026020836117c4565b91507f546865206d696e696d756d20636f6e747269627574696f6e206d7573742062656000830152602082019050919050565b60006113426015836117c4565b91507f4e6f7420456e6f75676820617070726f76616c732e00000000000000000000006000830152602082019050919050565b60006113826023836117c4565b91507f526571756573742068617320616c7265616479206265656e2066696e616c697a60008301527f65642e00000000000000000000000000000000000000000000000000000000006020830152604082019050919050565b60006113e86024836117c4565b91507f4f6e6c79204d616e616765722063616e2063616c6c20746869732066756e637460008301527f696f6e2e000000000000000000000000000000000000000000000000000000006020830152604082019050919050565b61144a81611856565b82525050565b600060208201905061146560008301846110c6565b92915050565b600060408201905061148060008301856110c6565b61148d6020830184611441565b9392505050565b60006020820190506114a960008301846110d5565b92915050565b600060608201905081810360008301526114c981866110e4565b90506114d86020830185611441565b6114e560408301846110c6565b949350505050565b600060a082019050818103600083015261150781886110e4565b90506115166020830187611441565b61152360408301866110b7565b61153060608301856110d5565b61153d6080830184611441565b9695505050505050565b600060a082019050818103600083015261156181886110e4565b90506115706020830187611441565b61157d60408301866110c6565b61158a60608301856110d5565b6115976080830184611441565b9695505050505050565b600060208201905081810360008301526115ba8161111d565b9050919050565b600060208201905081810360008301526115da81611183565b9050919050565b600060208201905081810360008301526115fa816111e9565b9050919050565b6000602082019050818103600083015261161a8161124f565b9050919050565b6000602082019050818103600083015261163a8161128f565b9050919050565b6000602082019050818103600083015261165a816112f5565b9050919050565b6000602082019050818103600083015261167a81611335565b9050919050565b6000602082019050818103600083015261169a81611375565b9050919050565b600060208201905081810360008301526116ba816113db565b9050919050565b60006020820190506116d66000830184611441565b92915050565b60006040820190506116f16000830185611441565b6116fe60208301846110c6565b9392505050565b600060a08201905061171a6000830188611441565b6117276020830187611441565b6117346040830186611441565b6117416060830185611441565b61174e60808301846110c6565b9695505050505050565b6000604051905081810181811067ffffffffffffffff8211171561177f5761177e6119aa565b5b8060405250919050565b600067ffffffffffffffff8211156117a4576117a36119aa565b5b601f19601f8301169050602081019050919050565b600081519050919050565b600082825260208201905092915050565b60006117e082611856565b91506117eb83611856565b9250826117fb576117fa61194c565b5b828204905092915050565b600061181182611836565b9050919050565b600061182382611836565b9050919050565b60008115159050919050565b600073ffffffffffffffffffffffffffffffffffffffff82169050919050565b6000819050919050565b82818337600083830152505050565b60005b8381101561188d578082015181840152602081019050611872565b8381111561189c576000848401525b50505050565b600060028204905060018216806118ba57607f821691505b602082108114156118ce576118cd61197b565b5b50919050565b60006118df82611856565b91507fffffffffffffffffffffffffffffffffffffffffffffffffffffffffffffffff8214156119125761191161191d565b5b600182019050919050565b7f4e487b7100000000000000000000000000000000000000000000000000000000600052601160045260246000fd5b7f4e487b7100000000000000000000000000000000000000000000000000000000600052601260045260246000fd5b7f4e487b7100000000000000000000000000000000000000000000000000000000600052602260045260246000fd5b7f4e487b7100000000000000000000000000000000000000000000000000000000600052604160045260246000fd5b6000601f19601f8301169050919050565b6119f381611806565b81146119fe57600080fd5b50565b611a0a81611856565b8114611a1557600080fd5b5056fea26469706673582212200e24e4cda5642dae6c5589d5647b79e236956bed43b80959e01a492ff829e0af64736f6c63430008000033a2646970667358221220987f327cf6a868f5b3a99469d792e777d4a61b0589d0cd8c755e90ae61ed121564736f6c63430008000033",
  "immutableReferences": {},
  "source": "// SPDX-License-Identifier: MIT\npragma solidity ^0.8.0;\n\ncontract CampaignFundFactory {\n    address[] public deployedCampaignFunds;\n\n    function createCampaign(uint minContributionInEther) public {\n        uint minContribution = minContributionInEther * 1 ether;\n        address newCampaignFund = address(\n            new CampaignFund(minContribution, msg.sender)\n        );\n        deployedCampaignFunds.push(newCampaignFund);\n    }\n\n    function getDeployedCampaigns() public view returns (address[] memory) {\n        return deployedCampaignFunds;\n    }\n}\n\ncontract CampaignFund {\n    struct Request {\n        string description;\n        uint value;\n        address payable recipient;\n        bool complete;\n        uint approvalCount;\n        // mapping(address => bool) approvals;\n    }\n\n    event RequestCreated(string descripton, uint value, address recipient);\n    event ContributionMade(address contributor, uint amount);\n    event RequestApproved(uint requestId, address approver);\n    event RequestFinalized(uint requestId);\n    address public manager;\n    uint public minContribution;\n    mapping(address => bool) public approvers;\n    Request[] public requests;\n    //mapping(uint => Request) public requests;\n    uint public numRequests;\n    uint public approversCount;\n    // This mapping tracks approvals for each request\n    mapping(uint => mapping(address => bool)) public approvals;\n\n    constructor(uint _minContribution, address _manager) {\n        manager = _manager;\n        //here the value recieved is converted to wei by multiplying with 10^18\n        minContribution = _minContribution;\n    }\n\n    function contribute() public payable {\n        require(\n            msg.value >= minContribution,\n            \"The minimum contribution must be\"\n        );\n        if (!approvers[msg.sender]) {\n            approvers[msg.sender] = true;\n            approversCount++;\n        }\n        emit ContributionMade(msg.sender, msg.value);\n    }\n\n    function createRequest(\n        string memory description,\n        uint value,\n        address recipient\n    ) public adminOnly {\n        require(recipient != address(0), \"Invalid recipient address\");\n        require(\n            value <= address(this).balance,\n            \"Request value exceeds contract balance\"\n        );\n        Request storage newReq = requests.push();\n        newReq.description = description;\n        newReq.value = value;\n        newReq.recipient = payable(recipient);\n        newReq.complete = false;\n        newReq.approvalCount = 0;\n        numRequests++;\n        emit RequestCreated(description, value, recipient);\n    }\n\n    // function approveRequest(uint index) public {\n    //     Request storage request = requests[index];\n    //     require(approvers[msg.sender]);\n    //     require(!request.approvals[msg.sender]);\n    //     request.approvals[msg.sender] = true;\n    //     request.approvalCount++;\n    // }\n    function approveRequest(uint index) public {\n        Request storage request = requests[index];\n        require(approvers[msg.sender], \"Only approvers can approve requests.\");\n\n        require(\n            !approvals[index][msg.sender],\n            \"Request already approved by caller.\"\n        );\n        require(!request.complete, \"Can't approve a complete request.\");\n        approvals[index][msg.sender] = true;\n        request.approvalCount++;\n        emit RequestApproved(index, msg.sender);\n    }\n\n    function finalizeRequest(uint index) public payable adminOnly {\n        Request storage request = requests[index];\n        require(\n            request.approvalCount > (approversCount / 2),\n            \"Not Enough approvals.\"\n        );\n        require(!request.complete, \"Request has already been finalized.\");\n        request.complete = true;\n        address payable recipientAddress = request.recipient;\n        recipientAddress.transfer(request.value);\n    }\n\n    function getSummary()\n        public\n        view\n        returns (uint, uint, uint, uint, address)\n    {\n        return (\n            minContribution,\n            address(this).balance,\n            numRequests,\n            approversCount,\n            manager\n        );\n    }\n\n    function getRequestsCount() public view returns (uint) {\n        return numRequests;\n    }\n\n    function getRequest(\n        uint index\n    ) public view returns (string memory, uint, address, bool, uint) {\n        Request storage request = requests[index];\n        return (\n            request.description,\n            request.value,\n            request.recipient,\n            request.complete,\n            request.approvalCount\n        );\n    }\n\n    modifier adminOnly() {\n        require(msg.sender == manager, \"Only Manager can call this function.\");\n        _;\n    }\n}\n",
  "sourcePath": "I:\\campaign-fund\\contracts\\CampaignFund.sol",
  "compiler": {
    "name": "solc",
    "version": "0.8.0+commit.c7dfd78e.Emscripten.clang"
  },
  "schemaVersion": "3.4.16",
  "updatedAt": "2024-07-31T11:23:10.998Z",
  "devdoc": {
    "kind": "dev",
    "methods": {},
    "version": 1
  },
  "userdoc": {
    "kind": "user",
    "methods": {},
    "version": 1
  }
}